{
  "_format": "hh-sol-artifact-1",
  "contractName": "MatchEngine",
  "sourceName": "contracts/MatchEngine.sol",
  "abi": [
    {
      "inputs": [
        {
          "internalType": "address",
          "name": "_founderRegistry",
          "type": "address"
        },
        {
          "internalType": "address",
          "name": "_investorRegistry",
          "type": "address"
        }
      ],
      "stateMutability": "nonpayable",
      "type": "constructor"
    },
    {
      "anonymous": false,
      "inputs": [
        {
          "indexed": true,
          "internalType": "address",
          "name": "investor",
          "type": "address"
        },
        {
          "indexed": true,
          "internalType": "address",
          "name": "founder",
          "type": "address"
        },
        {
          "indexed": false,
          "internalType": "uint256",
          "name": "timestamp",
          "type": "uint256"
        }
      ],
      "name": "MatchComputed",
      "type": "event"
    },
    {
      "inputs": [
        {
          "internalType": "address",
          "name": "investor",
          "type": "address"
        },
        {
          "internalType": "address",
          "name": "founder",
          "type": "address"
        }
      ],
      "name": "computeMatch",
      "outputs": [],
      "stateMutability": "nonpayable",
      "type": "function"
    },
    {
      "inputs": [],
      "name": "founderRegistry",
      "outputs": [
        {
          "internalType": "contract FounderRegistry",
          "name": "",
          "type": "address"
        }
      ],
      "stateMutability": "view",
      "type": "function"
    },
    {
      "inputs": [
        {
          "internalType": "address",
          "name": "investor",
          "type": "address"
        },
        {
          "internalType": "address",
          "name": "founder",
          "type": "address"
        }
      ],
      "name": "getMatchResult",
      "outputs": [
        {
          "internalType": "uint32",
          "name": "arrMet",
          "type": "uint32"
        },
        {
          "internalType": "uint32",
          "name": "growthMet",
          "type": "uint32"
        },
        {
          "internalType": "uint32",
          "name": "runwayMet",
          "type": "uint32"
        },
        {
          "internalType": "uint32",
          "name": "industryMet",
          "type": "uint32"
        },
        {
          "internalType": "uint32",
          "name": "score",
          "type": "uint32"
        },
        {
          "internalType": "bool",
          "name": "computed",
          "type": "bool"
        },
        {
          "internalType": "uint256",
          "name": "computedAt",
          "type": "uint256"
        }
      ],
      "stateMutability": "view",
      "type": "function"
    },
    {
      "inputs": [
        {
          "internalType": "address",
          "name": "investor",
          "type": "address"
        },
        {
          "internalType": "address",
          "name": "founder",
          "type": "address"
        }
      ],
      "name": "hasMatch",
      "outputs": [
        {
          "internalType": "bool",
          "name": "",
          "type": "bool"
        }
      ],
      "stateMutability": "view",
      "type": "function"
    },
    {
      "inputs": [],
      "name": "investorRegistry",
      "outputs": [
        {
          "internalType": "contract InvestorRegistry",
          "name": "",
          "type": "address"
        }
      ],
      "stateMutability": "view",
      "type": "function"
    }
  ],
  "bytecode": "0x608034608557601f61070538819003918201601f19168301916001600160401b038311848410176089578084926040948552833981010312608557604b6020604583609d565b9201609d565b5f80546001600160a01b039384166001600160a01b0319918216179091556001805492909316911617905560405161065490816100b18239f35b5f80fd5b634e487b7160e01b5f52604160045260245ffd5b51906001600160a01b038216820360855756fe6080604090808252600480361015610015575f80fd5b60e0905f35821c928363236545ef1461018f57505081633734256e1461016757816356ff3125146100d5575080636ad18c2b146100ae57639b2d5f7a1461005a575f80fd5b346100aa57806003193601126100aa57602090610075610515565b61007d61052b565b9060018060a01b038091165f5260028452825f2091165f52825260ff815f205460a01c1690519015158152f35b5f80fd5b50346100aa575f3660031901126100aa575f5490516001600160a01b039091168152602090f35b82346100aa57806003193601126100aa576100ee610515565b6100f661052b565b9060018060a01b038091165f526002602052825f2091165f52602052805f2060ff8154600163ffffffff930154928451948183168652818360201c1660208701528183821c1690860152808260601c1660608601528160801c16608085015260a01c16151560a083015260c0820152f35b82346100aa575f3660031901126100aa5760015490516001600160a01b039091168152602090f35b8285346100aa57806003193601126100aa576101a9610515565b906101b261052b565b9260018060a01b0392835f54168463c3c5a54760e01b968789521696878982015260209560249187818481875afa90811561050b575f916104d6575b501561049b5780600154169386519889521696878a82015286818381875afa9081156103dc575f91610466575b5015610425578388828b8851958693849262f53a4760e41b84528301525afa90811561041b575f905f9a5f945f946103e6575b508751637ca8408160e11b81529081018a9052948691869182905afa9283156103dc577f90a17974c12a6bda6b153b6e01a16743bd80e5ad654f18a13fedb0eb600a9b0198999a5f925f965f985f9761039b575b505063ffffffff80809516911610155f1461039157828060ff60195b1697169116106103885781806019975b1691161061038057806019935b169116145f1461037a5760195b61030860ff821661030360ff851661030360ff8916886105f2565b6105f2565b91885f5260028752855f208a5f52875268ff0000000000000000865f209564ff00000000600160a01b966affffffffffffffffffffff60a81b89541617918a1b161791871b16179060ff60601b9060601b16179063ffffffff60801b9060801b161717815560014291015551428152a3005b5f6102e8565b805f936102db565b81805f976102ce565b828060ff5f6102be565b92975092975094506103c29250803d106103d5575b6103ba8183610541565b810190610595565b509298939791969192508e9050806102a2565b503d6103b0565b86513d5f823e3d90fd5b909350899b50868095506104079293503d86116103d5576103ba8183610541565b50939e50919690959394939250905061024e565b85513d5f823e3d90fd5b8860176064928888519362461bcd60e51b85528401528201527f496e766573746f72206e6f7420726567697374657265640000000000000000006044820152fd5b90508681813d8311610494575b61047d8183610541565b810103126100aa5761048e90610577565b8a61021b565b503d610473565b855162461bcd60e51b8152808b0188905260168184015275119bdd5b99195c881b9bdd081c9959da5cdd195c995960521b6044820152606490fd5b90508781813d8311610504575b6104ed8183610541565b810103126100aa576104fe90610577565b8b6101ee565b503d6104e3565b87513d5f823e3d90fd5b600435906001600160a01b03821682036100aa57565b602435906001600160a01b03821682036100aa57565b90601f8019910116810190811067ffffffffffffffff82111761056357604052565b634e487b7160e01b5f52604160045260245ffd5b519081151582036100aa57565b519063ffffffff821682036100aa57565b908160e09103126100aa576105a981610584565b916105b660208301610584565b916105c360408201610584565b916105d060608301610584565b916105dd60808201610584565b9160c06105ec60a08401610577565b92015190565b91909163ffffffff8080941691160191821161060a57565b634e487b7160e01b5f52601160045260245ffdfea26469706673582212203ac1ebe0d2ee0cda85507518ea25e1688f918540c035c82abd72fa070040824764736f6c63430008190033",
  "linkReferences": {},
  "deployedLinkReferences": {}
}