{
  "_format": "hh-sol-artifact-1",
  "contractName": "MatchEngine",
  "sourceName": "contracts/MatchEngine.sol",
  "abi": [
    {
      "inputs": [
        {
          "internalType": "address",
          "name": "_founderRegistry",
          "type": "address"
        },
        {
          "internalType": "address",
          "name": "_investorRegistry",
          "type": "address"
        }
      ],
      "stateMutability": "nonpayable",
      "type": "constructor"
    },
    {
      "inputs": [
        {
          "internalType": "int32",
          "name": "value",
          "type": "int32"
        }
      ],
      "name": "SecurityZoneOutOfBounds",
      "type": "error"
    },
    {
      "anonymous": false,
      "inputs": [
        {
          "indexed": true,
          "internalType": "address",
          "name": "investor",
          "type": "address"
        },
        {
          "indexed": true,
          "internalType": "address",
          "name": "founder",
          "type": "address"
        },
        {
          "indexed": false,
          "internalType": "uint256",
          "name": "timestamp",
          "type": "uint256"
        }
      ],
      "name": "MatchComputed",
      "type": "event"
    },
    {
      "inputs": [
        {
          "internalType": "address",
          "name": "investor",
          "type": "address"
        },
        {
          "internalType": "address",
          "name": "founder",
          "type": "address"
        }
      ],
      "name": "computeMatch",
      "outputs": [],
      "stateMutability": "nonpayable",
      "type": "function"
    },
    {
      "inputs": [],
      "name": "founderRegistry",
      "outputs": [
        {
          "internalType": "contract FounderRegistry",
          "name": "",
          "type": "address"
        }
      ],
      "stateMutability": "view",
      "type": "function"
    },
    {
      "inputs": [
        {
          "internalType": "address",
          "name": "investor",
          "type": "address"
        },
        {
          "internalType": "address",
          "name": "founder",
          "type": "address"
        }
      ],
      "name": "getMatchResult",
      "outputs": [
        {
          "internalType": "euint32",
          "name": "arrMet",
          "type": "bytes32"
        },
        {
          "internalType": "euint32",
          "name": "growthMet",
          "type": "bytes32"
        },
        {
          "internalType": "euint32",
          "name": "runwayMet",
          "type": "bytes32"
        },
        {
          "internalType": "euint32",
          "name": "industryMet",
          "type": "bytes32"
        },
        {
          "internalType": "euint32",
          "name": "score",
          "type": "bytes32"
        },
        {
          "internalType": "bool",
          "name": "computed",
          "type": "bool"
        },
        {
          "internalType": "uint256",
          "name": "computedAt",
          "type": "uint256"
        }
      ],
      "stateMutability": "view",
      "type": "function"
    },
    {
      "inputs": [
        {
          "internalType": "address",
          "name": "investor",
          "type": "address"
        },
        {
          "internalType": "address",
          "name": "founder",
          "type": "address"
        }
      ],
      "name": "hasMatch",
      "outputs": [
        {
          "internalType": "bool",
          "name": "",
          "type": "bool"
        }
      ],
      "stateMutability": "view",
      "type": "function"
    },
    {
      "inputs": [],
      "name": "investorRegistry",
      "outputs": [
        {
          "internalType": "contract InvestorRegistry",
          "name": "",
          "type": "address"
        }
      ],
      "stateMutability": "view",
      "type": "function"
    }
  ],
  "bytecode": "0x608034608557601f610e5038819003918201601f19168301916001600160401b038311848410176089578084926040948552833981010312608557604b6020604583609d565b9201609d565b5f80546001600160a01b039384166001600160a01b03199182161790915560018054929093169116179055604051610d9f90816100b18239f35b5f80fd5b634e487b7160e01b5f52604160045260245ffd5b51906001600160a01b038216820360855756fe6080604090808252600480361015610015575f80fd5b60e0905f35821c928363236545ef14610189575082633734256e1461016157826356ff3125146100d557505080636ad18c2b146100ae57639b2d5f7a1461005a575f80fd5b346100aa57806003193601126100aa5760209061007561073e565b61007d610754565b9060018060a01b038091165f5260028452825f2091165f52825260ff6005825f2001541690519015158152f35b5f80fd5b50346100aa575f3660031901126100aa575f5490516001600160a01b039091168152602090f35b8390346100aa57816003193601126100aa576100ef61073e565b6100f7610754565b9060018060a01b038091165f526002602052835f2091165f52602052815f20805492600182015492600283015460038401549184015492600660ff600587015416950154958151978852602088015286015260608501526080840152151560a083015260c0820152f35b83346100aa575f3660031901126100aa5760015490516001600160a01b039091168152602090f35b8491346100aa576003199280843601126100aa576101a561073e565b6101ad610754565b60018060a01b0393845f541663c3c5a54760e01b97888852868416998a848a015260209760249989818c81885afa908115610551575f91610709575b50156106ce5780600154169088519b8c5287169a8b8682015289818c81855afa908115610551575f91610699575b501561065757818c8b8a518097819362f53a4760e41b83528a8301525afa998a1561064d575f925f928d5f975f9e61061b575b508290848d5180948193637ca8408160e11b83528d8301525afa948515610611575f905f925f945f986105c6575b50509161028c61029292610298959461084f565b9561084f565b9661084f565b92808c156105b6575b156105a8575b89519b6102b38d610792565b60028d528a368d8f01376102c68d610cda565b526102d08c610ce7565b528851936102dd856107ae565b5f85528951948591631888debd60e01b9d8e845289808501528484016018905260448401608090526084840161031291610c71565b9083820301606484015261032591610c71565b038a8573ea30c4b8b44078bbf8a6ef5b9f1ec1626c7848d99281845a905f91f194851561059e57908b9392915f9661056d575b50610361610cf7565b9c8b519261036e846107ae565b5f845260608d519661037f886107ca565b600388523690880137601961039387610cda565b528961039e87610ce7565b5285516002101561055b575090885f8e94936103cb8f8360608b0152519889968795869485528401610ca4565b03925af1918215610551575f9261051e575b50998161042682826104207f90a17974c12a6bda6b153b6e01a16743bd80e5ad654f18a13fedb0eb600a9b019f8261041a8561042c9a8194610968565b9b610968565b96610968565b94610968565b926104ee61044d61043d8484610b1f565b6104478787610b1f565b90610b1f565b968c5f5260028b528d8a5f20905f528b526104c08a5f209961046e85610bc1565b61047786610bc1565b61048087610bc1565b61048988610bc1565b6104928a610bc1565b61049c8186610c20565b6104a68187610c20565b6104b08188610c20565b6104ba8189610c20565b89610c20565b6104ca8184610c20565b6104d48185610c20565b6104de8186610c20565b6104e88187610c20565b87610c20565b865560018601556002850155600384015582015560058101600160ff1982541617905560064291015551428152a3005b9150998982813d831161054a575b61053681836107e6565b810103126100aa579051909961041a6103dd565b503d61052c565b89513d5f823e3d90fd5b634e487b7160e01b5f90815260328b52fd5b8481959297503d8311610597575b61058581836107e6565b810103126100aa578a9251948f610358565b503d61057b565b8a513d5f823e3d90fd5b506105b1610cf7565b6102a7565b9b506105c0610cf7565b9b6102a1565b6105f5929850610298955061028c94506102929350803d1061060a575b6105ed81836107e6565b810190610815565b50505094919092909294989294955092610278565b503d6105e3565b8b513d5f823e3d90fd5b9195509c508180975061063b9294503d851161060a576105ed81836107e6565b50919f929994979396915061024a9050565b88513d5f823e3d90fd5b875162461bcd60e51b81528086018a90526017818c01527f496e766573746f72206e6f7420726567697374657265640000000000000000006044820152606490fd5b90508981813d83116106c7575b6106b081836107e6565b810103126100aa576106c190610808565b8d610217565b503d6106a6565b875162461bcd60e51b81528086018a90526016818c015275119bdd5b99195c881b9bdd081c9959da5cdd195c995960521b6044820152606490fd5b90508981813d8311610737575b61072081836107e6565b810103126100aa5761073190610808565b8d6101e9565b503d610716565b600435906001600160a01b03821682036100aa57565b602435906001600160a01b03821682036100aa57565b67ffffffffffffffff811161077e57604052565b634e487b7160e01b5f52604160045260245ffd5b6060810190811067ffffffffffffffff82111761077e57604052565b6020810190811067ffffffffffffffff82111761077e57604052565b6080810190811067ffffffffffffffff82111761077e57604052565b90601f8019910116810190811067ffffffffffffffff82111761077e57604052565b519081151582036100aa57565b908160e09103126100aa5780519160208201519160408101519160608201519160808101519160c061084960a08401610808565b92015190565b908115610958575b801561094a575b6040519161086b83610792565b60028352604036602085013761088083610cda565b5261088a82610ce7565b5260206108d36040519261089d846107ae565b5f84526108e56040519485938493631888debd60e01b855260048086015260126024860152608060448601526084850190610c71565b83810360031901606485015290610c71565b03815f73ea30c4b8b44078bbf8a6ef5b9f1ec1626c7848d95af190811561093f575f91610910575090565b90506020813d602011610937575b8161092b602093836107e6565b810103126100aa575190565b3d915061091e565b6040513d5f823e3d90fd5b50610953610cf7565b61085e565b9050610962610cf7565b90610857565b91908215610a35575b8015610a27575b8115610a17575b6040519261098c846107ca565b6003845260603660208601376109a184610cda565b526109ab83610ce7565b52815160021015610a0357606082015260206108d3604051926109cd846107ae565b5f84526108e56040519485938493631888debd60e01b855260048086015260046024860152608060448601526084850190610c71565b634e487b7160e01b5f52603260045260245ffd5b9050610a21610cf7565b9061097f565b50610a30610cf7565b610978565b9150604051610a43816107ae565b5f815260405190610a53826107ca565b6003825260603660208401375f610a6983610cda565b525f610a7483610ce7565b52815160021015610a03576108d36020915f6060850152610abe6040519485938493631888debd60e01b85525f6004860152601a6024860152608060448601526084850190610c71565b03815f73ea30c4b8b44078bbf8a6ef5b9f1ec1626c7848d95af190811561093f575f91610aed575b5091610971565b90506020813d602011610b17575b81610b08602093836107e6565b810103126100aa57515f610ae6565b3d9150610afb565b908115610bb1575b8015610ba3575b60405191610b3b83610792565b600283526040366020850137610b5083610cda565b52610b5a82610ce7565b5260206108d360405192610b6d846107ae565b5f84526108e56040519485938493631888debd60e01b855260048086015260086024860152608060448601526084850190610c71565b50610bac610cf7565b610b2e565b9050610bbb610cf7565b90610b27565b73ea30c4b8b44078bbf8a6ef5b9f1ec1626c7848d9803b156100aa57604051631974142760e21b815260048101929092523060248301525f908290818381604481015b03925af1801561093f57610c155750565b610c1e9061076a565b565b73ea30c4b8b44078bbf8a6ef5b9f1ec1626c7848d991823b156100aa57604051631974142760e21b815260048101929092526001600160a01b03166024820152905f90829081838160448101610c04565b9081518082526020808093019301915f5b828110610c90575050505090565b835185529381019392810192600101610c82565b9091610cc9610cd79360048452601a6020850152608060408501526080840190610c71565b916060818403910152610c71565b90565b805115610a035760200190565b805160011015610a035760400190565b604051610d03816107ae565b5f815260405190610d13826107ca565b6003825260603660208401375f610d2983610cda565b526004610d3583610ce7565b52815160021015610a03575f6060830152604051631888debd60e01b815291602091839182916108e5919060048401610ca456fea2646970667358221220b39b960a0854a741d16fd2701cf3fe8223cc496ea0a7a451b23b926a33f7b21064736f6c63430008190033",
  "linkReferences": {},
  "deployedLinkReferences": {}
}