{
  "_format": "hh-sol-artifact-1",
  "contractName": "FounderRegistry",
  "sourceName": "contracts/FounderRegistry.sol",
  "abi": [
    {
      "anonymous": false,
      "inputs": [
        {
          "indexed": true,
          "internalType": "address",
          "name": "founder",
          "type": "address"
        },
        {
          "indexed": false,
          "internalType": "uint256",
          "name": "timestamp",
          "type": "uint256"
        }
      ],
      "name": "FounderRegistered",
      "type": "event"
    },
    {
      "anonymous": false,
      "inputs": [
        {
          "indexed": true,
          "internalType": "address",
          "name": "founder",
          "type": "address"
        },
        {
          "indexed": false,
          "internalType": "uint256",
          "name": "timestamp",
          "type": "uint256"
        }
      ],
      "name": "FounderUpdated",
      "type": "event"
    },
    {
      "inputs": [
        {
          "internalType": "uint256",
          "name": "",
          "type": "uint256"
        }
      ],
      "name": "founderAddresses",
      "outputs": [
        {
          "internalType": "address",
          "name": "",
          "type": "address"
        }
      ],
      "stateMutability": "view",
      "type": "function"
    },
    {
      "inputs": [],
      "name": "founderCount",
      "outputs": [
        {
          "internalType": "uint256",
          "name": "",
          "type": "uint256"
        }
      ],
      "stateMutability": "view",
      "type": "function"
    },
    {
      "inputs": [
        {
          "internalType": "address",
          "name": "founder",
          "type": "address"
        }
      ],
      "name": "getProfile",
      "outputs": [
        {
          "internalType": "uint32",
          "name": "arr",
          "type": "uint32"
        },
        {
          "internalType": "uint32",
          "name": "growth",
          "type": "uint32"
        },
        {
          "internalType": "uint32",
          "name": "runway",
          "type": "uint32"
        },
        {
          "internalType": "uint32",
          "name": "industry",
          "type": "uint32"
        },
        {
          "internalType": "uint32",
          "name": "stage",
          "type": "uint32"
        },
        {
          "internalType": "bool",
          "name": "registered",
          "type": "bool"
        },
        {
          "internalType": "uint256",
          "name": "registeredAt",
          "type": "uint256"
        }
      ],
      "stateMutability": "view",
      "type": "function"
    },
    {
      "inputs": [
        {
          "internalType": "address",
          "name": "founder",
          "type": "address"
        }
      ],
      "name": "isRegistered",
      "outputs": [
        {
          "internalType": "bool",
          "name": "",
          "type": "bool"
        }
      ],
      "stateMutability": "view",
      "type": "function"
    },
    {
      "inputs": [
        {
          "internalType": "uint32",
          "name": "_arr",
          "type": "uint32"
        },
        {
          "internalType": "uint32",
          "name": "_growth",
          "type": "uint32"
        },
        {
          "internalType": "uint32",
          "name": "_runway",
          "type": "uint32"
        },
        {
          "internalType": "uint32",
          "name": "_industry",
          "type": "uint32"
        },
        {
          "internalType": "uint32",
          "name": "_stage",
          "type": "uint32"
        }
      ],
      "name": "registerFounder",
      "outputs": [],
      "stateMutability": "nonpayable",
      "type": "function"
    }
  ],
  "bytecode": "0x6080806040523460155761039c908161001a8239f35b5f80fdfe608060409080825260049081361015610016575f80fd5b5f3560e01c9081630f53a47014610299575080634dc5e5ea146100f8578063773e3309146100da578063c3c5a547146100995763faab8b2b14610057575f80fd5b346100955760203660031901126100955735906001548210156100955761007f60209261031d565b905491519160018060a01b039160031b1c168152f35b5f80fd5b503461009557602036600319011261009557356001600160a01b0381169190829003610095576020915f525f825260ff815f205460a01c1690519015158152f35b8234610095575f366003190112610095576020906001549051908152f35b50346100955760a036600319011261009557803563ffffffff90818116809103610095576024359082821682036100955760443592808416840361009557606435818116810361009557608435918216820361009557335f525f602052865f20946bffffffff000000000000000067ffffffff0000000087549660201b1691891b169163ffffffff60601b9060601b169263ffffffff60801b9060801b169360ff85826bffffffffffffffffffffffff60a01b891617841785178617178089554260018a015560a01c16155f1461026557600160a01b956affffffffffffffffffffff60a81b1617171717171790556001549068010000000000000000821015610252575080600161020d920160015561031d565b81549060031b9033821b9160018060a01b03901b1916179055514281527f9c68c9933de8082946de64414a4839368c5f07c3b732b324fc7f2882ba23f10e60203392a2005b604190634e487b7160e01b5f525260245ffd5b5050505050505050514281527fd8af425112cee3a9ab5b35576dcc8f428256cda8e92258601aa5d9761fa84e3260203392a2005b9190503461009557602036600319011261009557356001600160a01b03811692908390036100955760e0925f525f60205260ff815f20805490600163ffffffff910154938183168652818360201c1660208701528183821c1690860152808260601c1660608601528160801c16608085015260a01c16151560a083015260c0820152f35b6001548110156103525760015f527fb10e2d527612073b26eecdfd717e6a320cf44b4afac2b0732d9fcbe2b7fa0cf601905f90565b634e487b7160e01b5f52603260045260245ffdfea26469706673582212209f94fe27ed66584ab68c9058264d8cf07d96a0ae4df3bc292ec0a41fe9a61a7764736f6c63430008190033",
  "linkReferences": {},
  "deployedLinkReferences": {}
}