{
  "_format": "hh-sol-artifact-1",
  "contractName": "InvestorRegistry",
  "sourceName": "contracts/InvestorRegistry.sol",
  "abi": [
    {
      "anonymous": false,
      "inputs": [
        {
          "indexed": true,
          "internalType": "address",
          "name": "investor",
          "type": "address"
        },
        {
          "indexed": false,
          "internalType": "uint256",
          "name": "timestamp",
          "type": "uint256"
        }
      ],
      "name": "InvestorRegistered",
      "type": "event"
    },
    {
      "anonymous": false,
      "inputs": [
        {
          "indexed": true,
          "internalType": "address",
          "name": "investor",
          "type": "address"
        },
        {
          "indexed": false,
          "internalType": "uint256",
          "name": "timestamp",
          "type": "uint256"
        }
      ],
      "name": "InvestorUpdated",
      "type": "event"
    },
    {
      "inputs": [
        {
          "internalType": "address",
          "name": "investor",
          "type": "address"
        }
      ],
      "name": "getCriteria",
      "outputs": [
        {
          "internalType": "uint32",
          "name": "minArr",
          "type": "uint32"
        },
        {
          "internalType": "uint32",
          "name": "minGrowth",
          "type": "uint32"
        },
        {
          "internalType": "uint32",
          "name": "minRunway",
          "type": "uint32"
        },
        {
          "internalType": "uint32",
          "name": "targetIndustry",
          "type": "uint32"
        },
        {
          "internalType": "uint32",
          "name": "targetStage",
          "type": "uint32"
        },
        {
          "internalType": "bool",
          "name": "registered",
          "type": "bool"
        },
        {
          "internalType": "uint256",
          "name": "registeredAt",
          "type": "uint256"
        }
      ],
      "stateMutability": "view",
      "type": "function"
    },
    {
      "inputs": [
        {
          "internalType": "uint256",
          "name": "",
          "type": "uint256"
        }
      ],
      "name": "investorAddresses",
      "outputs": [
        {
          "internalType": "address",
          "name": "",
          "type": "address"
        }
      ],
      "stateMutability": "view",
      "type": "function"
    },
    {
      "inputs": [],
      "name": "investorCount",
      "outputs": [
        {
          "internalType": "uint256",
          "name": "",
          "type": "uint256"
        }
      ],
      "stateMutability": "view",
      "type": "function"
    },
    {
      "inputs": [
        {
          "internalType": "address",
          "name": "investor",
          "type": "address"
        }
      ],
      "name": "isRegistered",
      "outputs": [
        {
          "internalType": "bool",
          "name": "",
          "type": "bool"
        }
      ],
      "stateMutability": "view",
      "type": "function"
    },
    {
      "inputs": [
        {
          "internalType": "uint32",
          "name": "_minArr",
          "type": "uint32"
        },
        {
          "internalType": "uint32",
          "name": "_minGrowth",
          "type": "uint32"
        },
        {
          "internalType": "uint32",
          "name": "_minRunway",
          "type": "uint32"
        },
        {
          "internalType": "uint32",
          "name": "_targetIndustry",
          "type": "uint32"
        },
        {
          "internalType": "uint32",
          "name": "_targetStage",
          "type": "uint32"
        }
      ],
      "name": "registerInvestor",
      "outputs": [],
      "stateMutability": "nonpayable",
      "type": "function"
    }
  ],
  "bytecode": "0x608080604052346015576103a0908161001a8239f35b5f80fdfe608060409080825260049081361015610016575f80fd5b5f3560e01c9081630c05f6e61461017c5750806395a25efa1461013d578063c3c5a547146100fc578063d7e64c00146100de5763f950810214610057575f80fd5b346100da5760203660031901126100da57356001600160a01b03811691908290036100da5760e0915f525f602052805f2060ff8154600163ffffffff930154928451948183168652818360201c1660208701528183821c1690860152808260601c1660608601528160801c16608085015260a01c16151560a083015260c0820152f35b5f80fd5b82346100da575f3660031901126100da576020906001549051908152f35b50346100da5760203660031901126100da57356001600160a01b03811691908290036100da576020915f525f825260ff815f205460a01c1690519015158152f35b50346100da5760203660031901126100da5735906001548210156100da57610166602092610321565b905491519160018060a01b039160031b1c168152f35b9050346100da5760a03660031901126100da5781359063ffffffff908183168093036100da576024359180831683036100da5760443581811681036100da576064359082821682036100da5760843592831683036100da57335f525f602052875f20956bffffffff000000000000000067ffffffff0000000088549760201b16928a1b169263ffffffff60601b9060601b169363ffffffff60801b9060801b169460ff86836bffffffffffffffffffffffff60a01b8a161785178617871717808a554260018b015560a01c16155f146102ec5750600160a01b956affffffffffffffffffffff60a81b16171717171717905560015490680100000000000000008210156102d957508060016102949201600155610321565b81549060031b9033821b9160018060a01b03901b1916179055514281527f49a4c683279db989eb69903ae0d2d58532e541c8758a8fac93191a49f170694060203392a2005b604190634e487b7160e01b5f525260245ffd5b985050505050505050504281527f403221bde54a0d4762136ded4b3d7b7cc75237e626c3f66e22ed53510fced20f60203392a2005b6001548110156103565760015f527fb10e2d527612073b26eecdfd717e6a320cf44b4afac2b0732d9fcbe2b7fa0cf601905f90565b634e487b7160e01b5f52603260045260245ffdfea2646970667358221220639c8833701e9579f0e53c576c465be80c6e49d5ffe94db0f754b26f6318f7e064736f6c63430008190033",
  "linkReferences": {},
  "deployedLinkReferences": {}
}