{
  "_format": "hh-sol-artifact-1",
  "contractName": "InvestorRegistry",
  "sourceName": "contracts/InvestorRegistry.sol",
  "abi": [
    {
      "inputs": [
        {
          "internalType": "uint8",
          "name": "got",
          "type": "uint8"
        },
        {
          "internalType": "uint8",
          "name": "expected",
          "type": "uint8"
        }
      ],
      "name": "InvalidEncryptedInput",
      "type": "error"
    },
    {
      "anonymous": false,
      "inputs": [
        {
          "indexed": true,
          "internalType": "address",
          "name": "investor",
          "type": "address"
        },
        {
          "indexed": false,
          "internalType": "uint256",
          "name": "timestamp",
          "type": "uint256"
        }
      ],
      "name": "InvestorRegistered",
      "type": "event"
    },
    {
      "anonymous": false,
      "inputs": [
        {
          "indexed": true,
          "internalType": "address",
          "name": "investor",
          "type": "address"
        },
        {
          "indexed": false,
          "internalType": "uint256",
          "name": "timestamp",
          "type": "uint256"
        }
      ],
      "name": "InvestorUpdated",
      "type": "event"
    },
    {
      "inputs": [
        {
          "internalType": "address",
          "name": "investor",
          "type": "address"
        }
      ],
      "name": "getCriteria",
      "outputs": [
        {
          "internalType": "euint32",
          "name": "minArr",
          "type": "bytes32"
        },
        {
          "internalType": "euint32",
          "name": "minGrowth",
          "type": "bytes32"
        },
        {
          "internalType": "euint32",
          "name": "minRunway",
          "type": "bytes32"
        },
        {
          "internalType": "euint32",
          "name": "targetIndustry",
          "type": "bytes32"
        },
        {
          "internalType": "euint32",
          "name": "targetStage",
          "type": "bytes32"
        },
        {
          "internalType": "bool",
          "name": "registered",
          "type": "bool"
        },
        {
          "internalType": "uint256",
          "name": "registeredAt",
          "type": "uint256"
        }
      ],
      "stateMutability": "view",
      "type": "function"
    },
    {
      "inputs": [
        {
          "internalType": "uint256",
          "name": "",
          "type": "uint256"
        }
      ],
      "name": "investorAddresses",
      "outputs": [
        {
          "internalType": "address",
          "name": "",
          "type": "address"
        }
      ],
      "stateMutability": "view",
      "type": "function"
    },
    {
      "inputs": [],
      "name": "investorCount",
      "outputs": [
        {
          "internalType": "uint256",
          "name": "",
          "type": "uint256"
        }
      ],
      "stateMutability": "view",
      "type": "function"
    },
    {
      "inputs": [
        {
          "internalType": "address",
          "name": "investor",
          "type": "address"
        }
      ],
      "name": "isRegistered",
      "outputs": [
        {
          "internalType": "bool",
          "name": "",
          "type": "bool"
        }
      ],
      "stateMutability": "view",
      "type": "function"
    },
    {
      "inputs": [
        {
          "components": [
            {
              "internalType": "uint256",
              "name": "ctHash",
              "type": "uint256"
            },
            {
              "internalType": "uint8",
              "name": "securityZone",
              "type": "uint8"
            },
            {
              "internalType": "uint8",
              "name": "utype",
              "type": "uint8"
            },
            {
              "internalType": "bytes",
              "name": "signature",
              "type": "bytes"
            }
          ],
          "internalType": "struct InEuint32",
          "name": "_minArr",
          "type": "tuple"
        },
        {
          "components": [
            {
              "internalType": "uint256",
              "name": "ctHash",
              "type": "uint256"
            },
            {
              "internalType": "uint8",
              "name": "securityZone",
              "type": "uint8"
            },
            {
              "internalType": "uint8",
              "name": "utype",
              "type": "uint8"
            },
            {
              "internalType": "bytes",
              "name": "signature",
              "type": "bytes"
            }
          ],
          "internalType": "struct InEuint32",
          "name": "_minGrowth",
          "type": "tuple"
        },
        {
          "components": [
            {
              "internalType": "uint256",
              "name": "ctHash",
              "type": "uint256"
            },
            {
              "internalType": "uint8",
              "name": "securityZone",
              "type": "uint8"
            },
            {
              "internalType": "uint8",
              "name": "utype",
              "type": "uint8"
            },
            {
              "internalType": "bytes",
              "name": "signature",
              "type": "bytes"
            }
          ],
          "internalType": "struct InEuint32",
          "name": "_minRunway",
          "type": "tuple"
        },
        {
          "components": [
            {
              "internalType": "uint256",
              "name": "ctHash",
              "type": "uint256"
            },
            {
              "internalType": "uint8",
              "name": "securityZone",
              "type": "uint8"
            },
            {
              "internalType": "uint8",
              "name": "utype",
              "type": "uint8"
            },
            {
              "internalType": "bytes",
              "name": "signature",
              "type": "bytes"
            }
          ],
          "internalType": "struct InEuint32",
          "name": "_targetIndustry",
          "type": "tuple"
        },
        {
          "components": [
            {
              "internalType": "uint256",
              "name": "ctHash",
              "type": "uint256"
            },
            {
              "internalType": "uint8",
              "name": "securityZone",
              "type": "uint8"
            },
            {
              "internalType": "uint8",
              "name": "utype",
              "type": "uint8"
            },
            {
              "internalType": "bytes",
              "name": "signature",
              "type": "bytes"
            }
          ],
          "internalType": "struct InEuint32",
          "name": "_targetStage",
          "type": "tuple"
        }
      ],
      "name": "registerInvestor",
      "outputs": [],
      "stateMutability": "nonpayable",
      "type": "function"
    }
  ],
  "bytecode": "0x608080604052346015576106a4908161001a8239f35b5f80fdfe60406080815260049081361015610014575f80fd5b5f3560e01c806395a25efa1461032f578063b334ea3214610134578063c3c5a547146100f2578063d7e64c00146100d45763f950810214610053575f80fd5b346100d05760203660031901126100d05781356001600160a01b03811692908390036100d05760e0925f525f602052815f20805492600182015492600283015460038401549184015492600660ff600587015416950154958151978852602088015286015260608501526080840152151560a083015260c0820152f35b5f80fd5b50346100d0575f3660031901126100d0576020906001549051908152f35b5090346100d05760203660031901126100d057356001600160a01b03811691908290036100d0576020915f525f825260ff6005825f2001541690519015158152f35b5090346100d05760031960a0368201126100d057813567ffffffffffffffff8082116100d05760808383360301126100d057602435908082116100d05760808483360301126100d057604435938185116100d05760808186360301126100d057606435908282116100d05760808183360301126100d0576084359283116100d05760809083360301126100d0576005946102246101f861021a6101f86102106101f88c6102078f6101fd6101f86101f892335f525f6020525f209f36908601610418565b6104bc565b9c36908401610418565b97369101610418565b9536908c01610418565b9436908a01610418565b9361022e81610600565b61023782610600565b61024083610600565b61024984610600565b61025285610600565b85556001850155600284015560038301558382015542600682015501805460ff81166103005760019060ff191617905560015490680100000000000000008210156102ed57508060016102a8920160015561036f565b81549060031b9033821b9160018060a01b03901b1916179055514281527f49a4c683279db989eb69903ae0d2d58532e541c8758a8fac93191a49f170694060203392a2005b604190634e487b7160e01b5f525260245ffd5b505050514281527f403221bde54a0d4762136ded4b3d7b7cc75237e626c3f66e22ed53510fced20f60203392a2005b5090346100d05760203660031901126100d05735906001548210156100d05761035960209261036f565b905491519160018060a01b039160031b1c168152f35b6001548110156103a45760015f527fb10e2d527612073b26eecdfd717e6a320cf44b4afac2b0732d9fcbe2b7fa0cf601905f90565b634e487b7160e01b5f52603260045260245ffd5b6080810190811067ffffffffffffffff8211176103d457604052565b634e487b7160e01b5f52604160045260245ffd5b90601f8019910116810190811067ffffffffffffffff8211176103d457604052565b359060ff821682036100d057565b91906080838203126100d05760405192610431846103b8565b8381358152602061044381840161040a565b818301526104536040840161040a565b6040830152606083013567ffffffffffffffff938482116100d057019084601f830112156100d05781359384116103d4576040519461049b601f8601601f19168301876103e8565b8486528185840101116100d05783606094825f940183880137850101520152565b60409060ff8282015116600481036105e25750606060ff918351906104e0826103b8565b5f825282602093835f86809601525f88820152015260e48151836060878286015116940151885192610511846103b8565b83528183019485528789840160048152606085019283528a51998a9788966313fce3b160e11b88528d6004890152516044880152511660648601525116608484015251608060a484015280519182918260c4860152018484015e5f838284010152336024830152601f801991011681010301815f73ea30c4b8b44078bbf8a6ef5b9f1ec1626c7848d95af19283156105d957505f926105af57505090565b90809250813d83116105d2575b6105c681836103e8565b810103126100d0575190565b503d6105bc565b513d5f823e3d90fd5b6044908351906367cf307160e01b8252600482015260046024820152fd5b73ea30c4b8b44078bbf8a6ef5b9f1ec1626c7848d990813b156100d0575f91604483926040519485938492631974142760e21b845260048401523060248401525af180156106635761064f5750565b67ffffffffffffffff81116103d457604052565b6040513d5f823e3d90fdfea2646970667358221220fa69372c6507fc22369f706e7b3722df12d39195f214a4ea9caf799a564c465a64736f6c63430008190033",
  "linkReferences": {},
  "deployedLinkReferences": {}
}